:0400000012EF00F00B
:100008000E01C5BB06D09C920E01C8BBECEC09F0F2
:1000180010000F018C7A0E01C59B100076EF0BF0D3
:100028000001C06F0001C005D8A41DEF00F01FEF4C
:1000380000F02DEF01F0010EBBEC0CF0000EBBEC54
:100048000CF0240EBBEC0CF0000E0001616F000EEA
:10005800606FC10E6025D96E000E6121DA6EDF5027
:10006800BBEC0CF00001604B612B61BF45EF00F069
:10007800615109E1060E605DD8A045EF00F047EF39
:1000880000F02DEF00F0000E636F000E626FC70ED8
:100098006225D96E000E6321DA6EDF50BBEC0CF0DE
:1000A8000001624B632B63BF63EF00F0635109E10A
:1000B800030E625DD8A063EF00F065EF00F04BEF30
:1000C80000F0000E656F000E646FCA0E6425D96ECD
:1000D800000E6521DA6EDF50BBEC0CF00001644BBA
:1000E800652B65BF81EF00F0655109E10C0E645D79
:1000F800D8A081EF00F083EF00F069EF00F0000E68
:10010800676F000E666F67BF93EF00F0675109E1F4
:10011800030E665DD8A093EF00F095EF00F097EF1F
:1001280000F0A5EF00F0D60E6625D96E000E672107
:10013800DA6EDF50BBEC0CF00001664B672B87EFE3
:1001480000F0000E696F000E686F69BFB5EF00F030
:10015800695109E1030E685DD8A0B5EF00F0B7EF6B
:1001680000F0B9EF00F0C7EF00F0D90E6825D96E9E
:10017800000E6921DA6EDF50BBEC0CF00001684B11
:10018800692BA9EF00F0000E6B6F000E6A6F6BBF52
:10019800D7EF00F06B5109E1030E6A5DD8A0D7EFE5
:1001A80000F0D9EF00F0DBEF00F0E9EF00F0DC0E33
:1001B8006A25D96E000E6B21DA6EDF50BBEC0CF0AD
:1001C80000016A4B6B2BCBEF00F0000E6D6F000E39
:1001D8006C6F6DBFF9EF00F06D5109E1030E6C5DB6
:1001E800D8A0F9EF00F0FBEF00F0FDEF00F00BEF07
:1001F80001F0DF0E6C25D96E000E6D21DA6EDF502E
:10020800BBEC0CF000016C4B6D2BEDEF00F0000E19
:100218006F6F000E6E6F6FBF1BEF01F06F5109E13A
:10022800030E6E5DD8A01BEF01F01DEF01F01FEF6C
:1002380001F0DEEF06F0E20E6E25D96E000E6F219A
:10024800DA6EDF50BBEC0CF000016E4B6F2B0FEF3A
:1002580001F0020EC019D8A434EF01F036EF01F016
:1002680050EF02F0010EBBEC0CF0000EBBEC0CF0F2
:10027800240EBBEC0CF0000E0001716F000E706FC5
:1002880071BF50EF01F0715109E1060E705DD8A001
:1002980050EF01F052EF01F054EF01F062EF01F07E
:1002A800480E7025D96E010E7121DA6EDF50BBEC55
:1002B8000CF00001704B712B44EF01F0000E736FCE
:1002C800000E726F73BF72EF01F0735109E1030EF4
:1002D800725DD8A072EF01F074EF01F076EF01F0D3
:1002E80084EF01F04E0E7225D96E010E7321DA6E7D
:1002F800DF50BBEC0CF00001724B732B66EF01F082
:10030800000E756F000E746F75BF94EF01F0755194
:1003180009E10C0E745DD8A094EF01F096EF01F09E
:1003280098EF01F0A6EF01F0510E7425D96E010E79
:100338007521DA6EDF50BBEC0CF00001744B752BA5
:1003480088EF01F0000E776F000E766F77BFB6EF7B
:1003580001F0775109E1030E765DD8A0B6EF01F000
:10036800B8EF01F0BAEF01F0C8EF01F05D0E7625A5
:10037800D96E010E7721DA6EDF50BBEC0CF000016C
:10038800764B772BAAEF01F0000E796F000E786F8D
:1003980079BFD8EF01F0795109E1030E785DD8A053
:1003A800D8EF01F0DAEF01F0DCEF01F0EAEF01F04D
:1003B800600E7825D96E010E7921DA6EDF50BBEC1C
:1003C8000CF00001784B792BCCEF01F0000E7B6F1D
:1003D800000E7A6F7BBFFAEF01F07B5109E1030E43
:1003E8007A5DD8A0FAEF01F0FCEF01F0FEEF01F022
:1003F8000CEF02F0630E7A25D96E010E7B21DA6EBE
:10040800DF50BBEC0CF000017A4B7B2BEEEF01F0D8
:10041800000E7D6F000E7C6F7DBF1CEF02F07D51DA
:1004280009E1030E7C5DD8A01CEF02F01EEF02F07C
:1004380020EF02F02EEF02F0660E7C25D96E010E39
:100448007D21DA6EDF50BBEC0CF000017C4B7D2B7C
:1004580010EF02F0000E7F6F000E7E6F7FBF3EEF41
:1004680002F07F5109E1030E7E5DD8A03EEF02F055
:1004780040EF02F042EF02F0DEEF06F0690E7E2553
:10048800D96E010E7F21DA6EDF50BBEC0CF0000153
:100498007E4B7F2B32EF02F0030EC019D8A457EF22
:1004A80002F059EF02F073EF03F0010EBBEC0CF011
:1004B800000EBBEC0CF0240EBBEC0CF0000E00019F
:1004C800816F000E806F81BF73EF02F0815109E1E7
:1004D800060E805DD8A073EF02F075EF02F077EF9B
:1004E80002F085EF02F0240E8025D96E010E8121DD
:1004F800DA6EDF50BBEC0CF00001804B812B67EF0C
:1005080002F0000E836F000E826F83BF95EF02F03A
:10051800835109E1030E825DD8A095EF02F097EFB1
:1005280002F099EF02F0A7EF02F02A0E8225D96EA9
:10053800010E8321DA6EDF50BBEC0CF00001824B18
:10054800832B89EF02F0000E856F000E846F85BF44
:10055800B7EF02F0855109E10C0E845DD8A0B7EF22
:1005680002F0B9EF02F0BBEF02F0C9EF02F02D0E76
:100578008425D96E010E8521DA6EDF50BBEC0CF0B4
:100588000001844B852BABEF02F0000E876F000E45
:10059800866F87BFD9EF02F0875109E1030E865DA8
:1005A800D8A0D9EF02F0DBEF02F0DDEF02F0EBEFBD
:1005B80002F0390E8625D96E010E8721DA6EDF50DA
:1005C800BBEC0CF00001864B872BCDEF02F0000E40
:1005D800896F000E886F89BFFBEF02F0895109E12E
:1005E800030E885DD8A0FBEF02F0FDEF02F0FFEFED
:1005F80002F00DEF03F03C0E8825D96E010E89211B
:10060800DA6EDF50BBEC0CF00001884B892BEFEF62
:1006180002F0000E8B6F000E8A6F8BBF1DEF03F088
:100628008B5109E1030E8A5DD8A01DEF03F01FEF7F
:1006380003F021EF03F02FEF03F03F0E8A25D96E68
:10064800010E8B21DA6EDF50BBEC0CF000018A4BF7
:100658008B2B11EF03F0000E8D6F000E8C6F8DBF8A
:100668003FEF03F08D5109E1030E8C5DD8A03FEFF9
:1006780003F041EF03F043EF03F051EF03F0420EB4
:100688008C25D96E010E8D21DA6EDF50BBEC0CF093
:1006980000018C4B8D2B33EF03F0000E8F6F000E93
:1006A8008E6F8FBF61EF03F08F5109E1030E8E5DEE
:1006B800D8A061EF03F063EF03F065EF03F0DEEF1E
:1006C80006F0450E8E25D96E010E8F21DA6EDF50A9
:1006D800BBEC0CF000018E4B8F2B55EF03F0040E92
:1006E800C019D8A47AEF03F07CEF03F096EF04F07A
:1006F800010EBBEC0CF0000EBBEC0CF0240EBBECB6
:100708000CF0000E0001916F000E906F91BF96EFF4
:1007180003F0915109E1060E905DD8A096EF03F021
:1007280098EF03F09AEF03F0A8EF03F00A0E902574
:10073800D96E000E9121DA6EDF50BBEC0CF000018F
:10074800904B912B8AEF03F0000E936F000E926F7F
:1007580093BFB8EF03F0935109E1030E925DD8A05F
:10076800B8EF03F0BAEF03F0BCEF03F0CAEF03F001
:10077800100E9225D96E000E9321DA6EDF50BBEC75
:100788000CF00001924B932BACEF03F0000E956F29
:10079800000E946F95BFDAEF03F0955109E10C0E46
:1007A800945DD8A0DAEF03F0DCEF03F0DEEF03F09E
:1007B800ECEF03F0130E9425D96E000E9521DA6E36
:1007C800DF50BBEC0CF00001944B952BCEEF03F0FF
:1007D800000E976F000E966F97BFFCEF03F09751CE
:1007E80009E1030E965DD8A0FCEF03F0FEEF03F0DD
:1007F80000EF04F00EEF04F01F0E9625D96E000EE0
:100808009721DA6EDF50BBEC0CF00001964B972B6A
:10081800F0EF03F0000E996F000E986F99BF1EEF6E
:1008280004F0995109E1030E985DD8A01EEF04F079
:1008380020EF04F022EF04F030EF04F0220E9825A8
:10084800D96E000E9921DA6EDF50BBEC0CF0000176
:10085800984B992B12EF04F0000E9B6F000E9A6FC5
:100868009BBF40EF04F09B5109E1030E9A5DD8A0AD
:1008780040EF04F042EF04F044EF04F052EF04F0CC
:10088800250E9A25D96E000E9B21DA6EDF50BBEC3F
:100898000CF000019A4B9B2B34EF04F0000E9D6F77
:1008A800000E9C6F9DBF62EF04F09D5109E1030E9D
:1008B8009C5DD8A062EF04F064EF04F066EF04F0EA
:1008C80074EF04F0280E9C25D96E000E9D21DA6E77
:1008D800DF50BBEC0CF000019C4B9D2B56EF04F055
:1008E800000E9F6F000E9E6F9FBF84EF04F09F5114
:1008F80009E1030E9E5DD8A084EF04F086EF04F0B2
:1009080088EF04F0DEEF06F02B0E9E25D96E000E60
:100918009F21DA6EDF50BBEC0CF000019E4B9F2B41
:1009280078EF04F0050EC019D8A49DEF04F09FEFEE
:1009380004F0B9EF05F0010EBBEC0CF0000EBBECB7
:100948000CF0240EBBEC0CF0000E0001A16F000EA1
:10095800A06FA1BFB9EF04F0A15109E1060EA05D97
:10096800D8A0B9EF04F0BBEF04F0BDEF04F0CBEF73
:1009780004F0000EA025D96E010EA121DA6EDF5019
:10098800BBEC0CF00001A04BA12BADEF04F0000E66
:10099800A36F000EA26FA3BFDBEF04F0A35109E120
:1009A800030EA25DD8A0DBEF04F0DDEF04F0DFEF6B
:1009B80004F0EDEF04F0060EA225D96E010EA32176
:1009C800DA6EDF50BBEC0CF00001A24BA32BCFEF8B
:1009D80004F0000EA56F000EA46FA5BFFDEF04F094
:1009E800A55109E10C0EA45DD8A0FDEF04F0FFEFBE
:1009F80004F001EF05F00FEF05F0090EA425D96EFC
:100A0800010EA521DA6EDF50BBEC0CF00001A44BFF
:100A1800A52BF1EF04F0000EA76F000EA66FA7BF7D
:100A28001FEF05F0A75109E1030EA65DD8A01FEF3F
:100A380005F021EF05F023EF05F031EF05F0150E75
:100A4800A625D96E010EA721DA6EDF50BBEC0CF09B
:100A58000001A64BA72B13EF05F0000EA96F000E9F
:100A6800A86FA9BF41EF05F0A95109E1030EA85DE0
:100A7800D8A041EF05F043EF05F045EF05F053EF3F
:100A880005F0180EA825D96E010EA921DA6EDF50DF
:100A9800BBEC0CF00001A84BA92B35EF05F0000EBC
:100AA800AB6F000EAA6FABBF63EF05F0AB5109E166
:100AB800030EAA5DD8A063EF05F065EF05F067EFB8
:100AC80005F075EF05F01B0EAA25D96E010EAB21B6
:100AD800DA6EDF50BBEC0CF00001AA4BAB2B57EFE2
:100AE80005F0000EAD6F000EAC6FADBF85EF05F0E1
:100AF800AD5109E1030EAC5DD8A085EF05F087EF95
:100B080005F089EF05F097EF05F01E0EAC25D96EBC
:100B1800010EAD21DA6EDF50BBEC0CF00001AC4BDE
:100B2800AD2B79EF05F0000EAF6F000EAE6FAFBFC3
:100B3800A7EF05F0AF5109E1030EAE5DD8A0A7EF0E
:100B480005F0A9EF05F0ABEF05F0DEEF06F0210E9A
:100B5800AE25D96E010EAF21DA6EDF50BBEC0CF07A
:100B68000001AE4BAF2B9BEF05F0060EC019D8A4C1
:100B7800C0EF05F0C2EF05F0DCEF06F0010EBBECAC
:100B88000CF0000EBBEC0CF0240EBBEC0CF0000ECD
:100B98000001B16F000EB06FB1BFDCEF05F0B151CD
:100BA80009E1060EB05DD8A0DCEF05F0DEEF05F038
:100BB800E0EF05F0EEEF05F0000EB025D96E020E5D
:100BC800B121DA6EDF50BBEC0CF00001B04BB12B59
:100BD800D0EF05F0000EB36F000EB26FB3BFFEEF9B
:100BE80005F0B35109E1030EB25DD8A0FEEF05F0A0
:100BF80000EF06F002EF06F010EF06F0060EB22541
:100C0800D96E020EB321DA6EDF50BBEC0CF0000196
:100C1800B24BB32BF2EF05F0000EB56F000EB46FB8
:100C2800B5BF20EF06F0B55109E10C0EB45DD8A0B0
:100C380020EF06F022EF06F024EF06F032EF06F080
:100C4800090EB425D96E020EB521DA6EDF50BBEC61
:100C58000CF00001B44BB52B14EF06F0000EB76F83
:100C6800000EB66FB7BF42EF06F0B75109E1030EA9
:100C7800B65DD8A042EF06F044EF06F046EF06F066
:100C880054EF06F0150EB625D96E020EB721DA6EAE
:100C9800DF50BBEC0CF00001B64BB72B36EF06F07B
:100CA800000EB96F000EB86FB9BF64EF06F0B95106
:100CB80009E1030EB85DD8A064EF06F066EF06F010
:100CC80068EF06F076EF06F0180EB825D96E020E1A
:100CD800B921DA6EDF50BBEC0CF00001B84BB92B30
:100CE80058EF06F0000EBB6F000EBA6FBBBF86EF61
:100CF80006F0BB5109E1030EBA5DD8A086EF06F0F5
:100D080088EF06F08AEF06F098EF06F01B0EBA257A
:100D1800D96E020EBB21DA6EDF50BBEC0CF000017D
:100D2800BA4BBB2B7AEF06F0000EBD6F000EBC6FFE
:100D3800BDBFA8EF06F0BD5109E1030EBC5DD8A008
:100D4800A8EF06F0AAEF06F0ACEF06F0BAEF06F04F
:100D58001E0EBC25D96E020EBD21DA6EDF50BBEC2B
:100D68000CF00001BC4BBD2B9CEF06F0000EBF6FD2
:100D7800000EBE6FBFBFCAEF06F0BF5109E1030EF8
:100D8800BE5DD8A0CAEF06F0CCEF06F0CEEF06F0B5
:100D9800DEEF06F0210EBE25D96E020EBF21DA6EF7
:100DA800DF50BBEC0CF00001BE4BBF2BBEEF06F0D2
:100DB800A3EC0CF0120021EE8AF011EECCF0050E37
:100DC800DBCFE3FFE806FCE2C10E356E000E366E9F
:100DD800CC0E376E010E386E000E3A6E060E396E66
:100DE80057EC0CF0B1C1D8F1B2C1D9F1B3C1DAF105
:100DF800C70E356E000E366ED80E376E010E386E81
:100E0800000E3A6E030E396E57EC0CF021EE6CF0C2
:100E180011EEB4F00B0EDBCFE3FFE806FCE2CA0EDE
:100E2800356E000E366EB40E376E010E386E000E3B
:100E38003A6E0C0E396E57EC0CF0AEC1DBF1AFC157
:100E4800DCF1B0C1DDF1D60E356E000E366EDB0E6C
:100E5800376E010E386E000E3A6E030E396E57EC7F
:100E68000CF0ABC1DEF1ACC1DFF1ADC1E0F1D90EE0
:100E7800356E000E366EDE0E376E010E386E000EC1
:100E88003A6E030E396E57EC0CF0A8C1E1F1A9C116
:100E9800E2F1AAC1E3F1DC0E356E000E366EE10E0A
:100EA800376E010E386E000E3A6E030E396E57EC2F
:100EB8000CF0A5C1E4F1A6C1E5F1A7C1E6F1DF0E8A
:100EC800356E000E366EE40E376E010E386E000E6B
:100ED8003A6E010E396E57EC0CF0A2C1E7F1A3C1CE
:100EE800E8F1A4C1E9F1E20E356E000E366EE70EA8
:100EF800376E010E386E000E3A6E030E396E57ECDF
:100F08000CF0480E356E010E366EC10E376E000EAF
:100F1800386E000E3A6E060E396E57EC0CF04E0E17
:100F2800356E010E366EC70E376E000E386E000E27
:100F38003A6E030E396E57EC0CF0510E356E010EF9
:100F4800366ECA0E376E000E386E000E3A6E0C0EF4
:100F5800396E57EC0CF05D0E356E010E366ED60EFE
:100F6800376E000E386E000E3A6E030E396E57EC6F
:100F78000CF0600E356E010E366ED90E376E000E0F
:100F8800386E000E3A6E030E396E57EC0CF0630E95
:100F9800356E010E366EDC0E376E000E386E000EA2
:100FA8003A6E030E396E57EC0CF0660E356E010E74
:100FB800366EDF0E376E000E386E000E3A6E030E78
:100FC800396E57EC0CF0690E356E010E366EE20E76
:100FD800376E000E386E000E3A6E030E396E57ECFF
:100FE8000CF0240E356E010E366EC10E376E000EF3
:100FF800386E000E3A6E060E396E57EC0CF02A0E5B
:10100800356E010E366EC70E376E000E386E000E46
:101018003A6E030E396E57EC0CF02D0E356E010E3C
:10102800366ECA0E376E000E386E000E3A6E0C0E13
:10103800396E57EC0CF0390E356E010E366ED60E41
:10104800376E000E386E000E3A6E030E396E57EC8E
:101058000CF03C0E356E010E366ED90E376E000E52
:10106800386E000E3A6E030E396E57EC0CF03F0ED8
:10107800356E010E366EDC0E376E000E386E000EC1
:101088003A6E030E396E57EC0CF0420E356E010EB7
:10109800366EDF0E376E000E386E000E3A6E030E97
:1010A800396E57EC0CF0450E356E010E366EE20EB9
:1010B800376E000E386E000E3A6E030E396E57EC1E
:1010C8000CF021EE84F011EED2F0050EDBCFE3FF39
:1010D800E806FCE20A0E356E000E366ED20E376E4A
:1010E800010E386E000E3A6E060E396E57EC0CF093
:1010F8009FC1EAF1A0C1EBF1A1C1ECF1100E356E70
:10110800000E366EEA0E376E010E386E000E3A6E1D
:10111800030E396E57EC0CF022EE24F011EEC0F0FD
:101128000B0EDBCFE3FFE806FCE2130E356E000E74
:10113800366EC00E376E010E386E000E3A6E0C0E0B
:10114800396E57EC0CF09CC1EDF19DC1EEF19EC1DA
:10115800EFF11F0E356E000E366EED0E376E010E76
:10116800386E000E3A6E030E396E57EC0CF099C1CA
:10117800F0F19AC1F1F19BC1F2F1220E356E000E29
:10118800366EF00E376E010E386E000E3A6E030E94
:10119800396E57EC0CF096C1F3F197C1F4F198C190
:1011A800F5F1250E356E000E366EF30E376E010E14
:1011B800386E000E3A6E030E396E57EC0CF093C180
:1011C800F6F194C1F7F195C1F8F1280E356E000ECD
:1011D800366EF60E376E010E386E000E3A6E030E3E
:1011E800396E57EC0CF090C1F9F191C1FAF192C146
:1011F800FBF12B0E356E000E366EF90E376E010EB2
:10120800386E000E3A6E030E396E57EC0CF0000E75
:10121800356E010E366E0A0E376E000E386E000EF1
:101228003A6E060E396E57EC0CF0060E356E010E4E
:10123800366E100E376E000E386E000E3A6E030EC4
:10124800396E57EC0CF0090E356E010E366E130E22
:10125800376E000E386E000E3A6E0C0E396E57EC73
:101268000CF0150E356E010E366E1F0E376E000E21
:10127800386E000E3A6E030E396E57EC0CF0180EED
:10128800356E010E366E220E376E000E386E000E69
:101298003A6E030E396E57EC0CF01B0E356E010ECC
:1012A800366E250E376E000E386E000E3A6E030E3F
:1012B800396E57EC0CF01E0E356E010E366E280E88
:1012C800376E000E386E000E3A6E030E396E57EC0C
:1012D8000CF0210E356E010E366E2B0E376E000E99
:1012E800386E000E3A6E030E396E57EC0CF0000E95
:1012F800356E020E366E0A0E376E000E386E000E10
:101308003A6E060E396E57EC0CF0060E356E020E6C
:10131800366E100E376E000E386E000E3A6E030EE3
:10132800396E57EC0CF0090E356E020E366E130E40
:10133800376E000E386E000E3A6E0C0E396E57EC92
:101348000CF0150E356E020E366E1F0E376E000E3F
:10135800386E000E3A6E030E396E57EC0CF0180E0C
:10136800356E020E366E220E376E000E386E000E87
:101378003A6E030E396E57EC0CF01B0E356E020EEA
:10138800366E250E376E000E386E000E3A6E030E5E
:10139800396E57EC0CF01E0E356E020E366E280EA6
:1013A800376E000E386E000E3A6E030E396E57EC2B
:1013B8000CF0210E356E020E366E2B0E376E000EB7
:1013C800386E000E3A6E030E396E57EC0CF01200B0
:1013D8000E01C899FAEF09F0010E0824D96EDA6AED
:1013E800000EDA22E2EC0CF0DF6E082A050E086423
:1013F80000EF0AF002EF0AF0F0EF09F00EEF0AF042
:10140800000E0724D96EDA6A030EDA22E2EC0CF039
:10141800DF6E072A0650075CD8A015EF0AF017EF11
:101428000AF004EF0AF0000E076E000E086E0304BF
:10143800D8A421EF0AF023EF0AF050EF0AF0020EC9
:101448000418D8A42AEF0AF02CEF0AF050EF0AF09B
:10145800020E0618D8A433EF0AF035EF0AF050EF61
:101468000AF003010005D8A43CEF0AF03EEF0AF0A9
:1014780042EF0AF0BDEC0AF0BCEF0AF0030E0019C7
:10148800D8A449EF0AF04BEF0AF050EF0AF00250E7
:1014980014EC00F0BCEF0AF0030E0318D8A457EFC1
:1014A8000AF059EF0AF0BAEF0AF00404D8A45FEF83
:1014B8000AF061EF0AF066EF0AF0025012EC0CF045
:1014C800BCEF0AF0020E0418D8A46DEF0AF06FEF13
:1014D8000AF086EF0AF0040E0218D8A476EF0AF094
:1014E80078EF0AF086EF0AF0030101B102D0829882
:1014F80001D08288000E306E000E2F6ED8EC0CF0F2
:10150800BCEF0AF0020E0418D8A48DEF0AF08FEF92
:101518000AF0A0EF0AF0050E0218D8A496EF0AF018
:1015280098EF0AF0A0EF0AF0030101B102D0829A05
:1015380001D0828A7EEF0AF0020E0418D8A4A7EF21
:101548000AF0A9EF0AF0BAEF0AF0060E0218D8A4BA
:10155800B0EF0AF0B2EF0AF0BAEF0AF0030101B1F6
:1015680002D0829C01D0828C7EEF0AF0A3EC0CF0B2
:101578001200010EBBEC0CF0000EBBEC0CF0160ECA
:10158800BBEC0CF0000E306E000E2F6EE50E2F2413
:10159800D96E000E3020DA6EDF50BBEC0CF02F4A0B
:1015A800302A30BEE1EF0AF0305009E1060E2F5C18
:1015B800D8A0E1EF0AF0E3EF0AF0CAEF0AF0000E54
:1015C800326E000E316EEB0E3124D96E000E3220D1
:1015D800DA6EDF50BBEC0CF0314A322A32BEFEEF35
:1015E8000AF0325009E10C0E315CD8A0FEEF0AF087
:1015F80000EF0BF0E7EF0AF0000E346E000E336ECA
:10160800F70E3324D96E000E3420DA6EDF50BBECAF
:101618000CF0334A342A34BE1BEF0BF0345009E186
:10162800040E335CD8A01BEF0BF01DEF0BF004EF9A
:101638000BF012000F01826B010E0F01876F010E74
:101648000F010C6F0F01836B070E0F01836F070EDD
:101658000F01146F0F01846B0F01896B898E0F01C5
:101668001C6B0E01090EF66F0E01170EB06F0E01FE
:10167800600ED36F0E01060ED96F0E01400ED76FA4
:101688000F01330E9A6E000E9B6E0F01200E9D6E99
:10169800B00E0F019C6E0F01080E5A6F0F01000E5D
:1016A800536F0F010F0E526F0F01000E5B6F0F018A
:1016B800D46A0F014C0ED56E0F01D26A0E01C59B7C
:1016C8000E01C6910E01C89B0E01BD8B0E01BE8195
:1016D8000E01C08B0F01D48E0F015B8F0F01F28EAC
:1016E800F28C1200808E809CE80EF66E190EF76E52
:1016F800000EF86E02EE24F010EE0CF00900F5CFA3
:10170800EEFFE550E150FAE1FE0EF66E180EF76EA8
:10171800000EF86E01EE6CF010EE48F00900F5CFFF
:10172800EEFFE550E150FAE1F40EF66E190EF76E91
:10173800000EF86E00EE40F010EE0AF00900F5CF4A
:10174800EEFFE550E150FAE103EE00F011EE00F093
:10175800EE6AE550E150FCE1E250FAE102EE00F0F9
:10176800240EEE6AE806FDE101EE00F06C0EEE6A6A
:10177800E806FDE100EEC1F03A0EEE6AE806FDE18A
:1017880000EE01F02D0EEE6AE806FDE10001CEEF55
:101798000CF020EE40F011EEC0F0050EDBCFE3FFB9
:1017A800E806FCE2E50E356E000E366EC00E376EAA
:1017B800010E386E000E3A6E060E396E57EC0CF0BC
:1017C80021EE78F011EEB4F00B0EDBCFE3FFE80664
:1017D800FCE2EB0E356E000E366EB40E376E010E5F
:1017E800386E000E3A6E0C0E396E57EC0CF046C08F
:1017F800C6F147C0C7F148C0C8F149C0C9F1F70EE2
:10180800356E000E366EC60E376E010E386E000E3F
:101818003A6E040E396E57EC0CF01200316E31043A
:10182800D8A419EF0CF01BEF0CF020EF0CF0080E09
:101838000F015A6F40EF0CF0020E3118D8A427EFB1
:101848000CF029EF0CF02EEF0CF0090E0F015A6F77
:1018580040EF0CF0030E3118D8A435EF0CF037EF39
:101868000CF03CEF0CF00A0E0F015A6F40EF0CF031
:10187800A3EC0CF056EF0CF0000E306E010E2F6E3C
:10188800D8EC0CF00F015B810E01C6A14EEF0CF0F5
:1018980050EF0CF048EF0CF00F015F51BBEC0CF06F
:1018A8000E01C691120037C03EF038C03FF035C077
:1018B8003CF036C03DF071EF0CF03EC0D9FF3FC0A0
:1018C800DAFFDF503B6E3E4A3F2A3CC0D9FF3DC09D
:1018D800DAFF3BC0DFFF3C4A3D2A3906D8A03A066A
:1018E800392806E13A28D8A47CEF0CF07EEF0CF0FA
:1018F80061EF0CF012000C0A00808082807C8080EE
:101908008080040A000000000000000000010304B9
:10191800000300010304000300012A010829010152
:101928002801000E01FF0D01000B01012A01082901
:1019380001012801000E01FF0D01000B0100000E3E
:10194800306E000E2F6E000EBBEC0CF02F4A302AC2
:1019580030BEB8EF0CF0305009E1030E2F5CD8A070
:10196800B8EF0CF0BAEF0CF0A7EF0CF012002E6EE7
:101978000E01C8A9C2EF0CF0C4EF0CF0BCEF0CF0DC
:101988002EC099FFC8A9CBEF0CF0CDEF0CF0C6EF35
:101998000CF012001EEC0BF0CDEC0BF0DFEC06F0B7
:1019A800D4EF0CF012EF00F0010EBBEC0CF0000EBF
:1019B800BBEC0CF02F50BBEC0CF012000E01C8ABC6
:1019C800E8EF0CF0EAEF0CF0E2EF0CF098501200A0
:1019D800050F036E0001010E0927000B03241200F6
:1019E8000C0A00808084827A7E8080800304000153
:0619F80000010D020006D3
:020000040020DA
:10000000FFFFFFFFFFFFFFFFFFFFFFFFFFFFFFFF00
:10001000FFFFFFFFFFFFFFFFFFFFFFFFFFFFFFFFF0
:10002000FFFFFFFFFFFFFFFFFFFFFFFFFFFFFFFFE0
:10003000FFFFFFFFFFFFFFFFFFFFFFFFFFFFFFFFD0
:10004000FFFFFFFFFFFFFFFFFFFFFFFFFFFFFFFFC0
:10005000FFFFFFFFFFFFFFFFFFFFFFFFFFFFFFFFB0
:10006000FFFFFFFFFFFFFFFFFFFFFFFFFFFFFFFFA0
:10007000FFFFFFFFFFFFFFFFFFFFFFFFFFFFFFFF90
:10008000FFFFFFFFFFFFFFFFFFFFFFFFFFFFFFFF80
:10009000FFFFFFFFFFFFFFFFFFFFFFFFFFFFFFFF70
:1000A000FFFFFFFFFFFFFFFFFFFFFFFFFFFFFFFF60
:1000B000FFFFFFFFFFFFFFFFFFFFFFFFFFFFFFFF50
:1000C000FFFFFFFFFFFFFFFFFFFFFFFFFFFFFFFF40
:1000D000FFFFFFFFFFFFFFFFFFFFFFFFFFFFFFFF30
:1000E000FFFFFFFFFFFFFFFFFFFFFFFFFFFFFFFF20
:1000F000FFFFFFFFFFFFFFFFFFFFFFFFFFFFFFFF10
:020000040030CA
:0C000000FCFFFFFF9FFFFFFFFFFFFFFF63
:00000001FF
