:040000001FEF00F0FE
:100008000E01C5BB08D00E01C6B10FD00E01C8BB8A
:10001800E5EC0AF010000F01080E5A6F0F015B8122
:100028000F018C7A0E01C59B10000F015FCF40F0C5
:0A0038000E01C691100071EF0AF0EE
:10100000004F7574707574206F662066756E63741A
:10101000696F6E203D2000476C6F62616C207661C5
:10102000726961626C65203D2000583A00593A00AF
:101030005A3A000A00004150D8A421EF08F023EFEB
:1010400008F037EF08F02A0E196E100E1A6EACEC8D
:101050000AF040C00BF00C6AD2EC0AF0330E196EA5
:10106000100E1A6EACEC0AF0090E0F015A6F410413
:10107000D8A43DEF08F03FEF08F053EF08F02D0E35
:10108000196E100E1A6EACEC0AF040C00BF00C6A30
:10109000D2EC0AF0330E196E100E1A6EACEC0AF098
:1010A0000A0E0F015A6F020E4118D8A45AEF08F029
:1010B0005CEF08F070EF08F0300E196E100E1A6E2B
:1010C000ACEC0AF040C00BF00C6AD2EC0AF0330E24
:1010D000196E100E1A6EACEC0AF0080E0F015A6F62
:1010E000412A030E4118D8A478EF08F07AEF08F0EF
:1010F0007CEF08F0000E416E12000F01826B010EB2
:101100000F01876F010E0F010C6F0F01836B070E2C
:101110000F01836F070E0F01146F0F01846B0F0116
:10112000896B898E0F011C6B0E01090EF66F0E0183
:10113000170EB06F0E01600ED36F0E01060ED96F41
:101140000E01400ED76F0F01330E9A6E000E9B6E8C
:101150000F01200E9D6EB00E0F019C6E0F01080E48
:101160005A6F0F01000E536F0F010F0E526F0F01D8
:10117000000E5B6F0F01D46A0F014C0ED56E0F018C
:10118000D26A0E01C59B0E01C6910E01C89B0E01CD
:10119000BD8B0E01BE810E01C08B0F01D48E0F01DD
:1011A0005B8F0F01F28EF28C0001000E416F120076
:1011B00020502110D8B4DFEF08F0E1EF08F0EAEF9B
:1011C00008F020502110D8A4E8EF08F0EAEF08F06A
:1011D000EFEF08F01E5099EC0AF022EF09F020EE34
:1011E00009F02050D9262150DA22DE50DE10D8B482
:1011F000FCEF08F0FEEF08F019EF09F020EE09F01F
:101200002050D9262150DA2210EE03F02050E1269A
:101210002150E222DE50E65CE650800A266EDE5067
:10122000800A2658D8B017EF09F019EF09F022EF1D
:1012300009F020EE03F02050D9262150DA22DE2AD0
:10124000000EDD221EC01EF01F6A120004500510A1
:10125000D8B42DEF09F02FEF09F038EF09F0045062
:101260000510D8A436EF09F038EF09F03DEF09F08A
:101270000250BFEC0AF070EF09F020EE09F00450C4
:10128000D9260550DA22DE50DE10D8B44AEF09F034
:101290004CEF09F067EF09F020EE09F00450D92671
:1012A0000550DA2210EE03F00450E1260550E22248
:1012B000DE50E65CE650800A0A6EDE50800A0A586C
:1012C000D8B065EF09F067EF09F070EF09F020EE94
:1012D00003F00450D9260550DA22DE2A000EDD2262
:1012E00002C002F0036A120029C0D9FF2AC0DAFF47
:1012F000DECFF6FFDDCFF7FF0800F550250AD8A4B2
:1013000084EF09F086EF09F09EEF09F029C0D9FFBC
:101310002AC0DAFFDE2A000EDD22000E3C6E000E2F
:101320003B6E3BC03FF03D683E6829C0D9FF2AC0F4
:10133000DAFFDE2A000EDD22B2EF09F029C0D9FF64
:101340002AC0DAFFDECFF6FFDDCFF7FF0800F55049
:101350001E6E1F6A27C020F028C021F0D8EC08F0CC
:1013600095EF09F012000DC0D9FF0EC0DAFFDECFF5
:10137000F6FFDDCFF7FF0800F550250AD8A4C3EF2C
:1013800009F0C5EF09F0DDEF09F00DC0D9FF0EC07F
:10139000DAFFDE2A000EDD22000E3C6E000E3B6EF0
:1013A0003BC03FF03D683E680DC0D9FF0EC0DAFF7C
:1013B000DE2A000EDD22F1EF09F00DC0D9FF0EC0CC
:1013C000DAFFDECFF6FFDDCFF7FF0800F550026E43
:1013D000036A0BC004F00CC005F026EC09F0D4EF52
:1013E00009F012007DEC08F0030EDDEC0AF00001BC
:1013F000826F000E816F000E806F030E3A6E080E32
:10140000396E770EE82EFED7392EFCD73A2EFAD752
:1014100000F0010E00018025806F000E8121816F98
:101420004250D8B416EF0AF018EF0AF0FDEF09F0B9
:101430004228426E425099EC0AF0000E426EFDEFD7
:1014400009F01FEF00F02FC033F030C034F037EF59
:101450000AF02DC027F02EC028F0330E296E000EA2
:101460002A6E31C02BF032C02CF074EC09F033C07E
:10147000F6FF34C0F7FF0800F5500009D8A443EF89
:101480000AF045EF0AF029EF0AF0000E2E6E000E6A
:101490002D6E120013C017F014C018F05EEF0AF0A2
:1014A00011C00BF012C00CF0170E0D6E000E0E6E78
:1014B00015C00FF016C010F0B3EC09F017C0F6FF1E
:1014C00018C0F7FF0800F5500009D8A46AEF0AF029
:1014D0006CEF0AF050EF0AF0000E126E000E116E63
:1014E0001200808E809C00EE60F0200EEE6AE8060E
:1014F000FDE100EE3BF0090EEE6AE806FDE1000EAC
:10150000F86E100EF76E0001F2EF09F0370E376E2D
:10151000000E386E000E2D6E000E2E6E35C02FF0B0
:1015200036C030F0370E316E000E326E23EC0AF00A
:1015300012001D6E0E01C8A9A0EF0AF0A2EF0AF07A
:101540009AEF0AF01DC099FFC8A9A9EF0AF0ABEF06
:101550000AF0A4EF0AF012001B0E1B6E000E1C6EA8
:10156000000E116E000E126E19C013F01AC014F0A6
:101570001B0E156E000E166E4AEC0AF01200016E7C
:101580000E01C8A9C6EF0AF0C8EF0AF0C0EF0AF0D2
:1015900001C099FFC8A9CFEF0AF0D1EF0AF0CAEF56
:1015A0000AF012000BC002F00CC003F0000E046E33
:1015B000000E056E26EC09F01200050F036E000107
:1015C000010E4327000B0324120098CF42F01200B3
:020000040020DA
:10000000FFFFFFFFFFFFFFFFFFFFFFFFFFFFFFFF00
:10001000FFFFFFFFFFFFFFFFFFFFFFFFFFFFFFFFF0
:10002000FFFFFFFFFFFFFFFFFFFFFFFFFFFFFFFFE0
:10003000FFFFFFFFFFFFFFFFFFFFFFFFFFFFFFFFD0
:10004000FFFFFFFFFFFFFFFFFFFFFFFFFFFFFFFFC0
:10005000FFFFFFFFFFFFFFFFFFFFFFFFFFFFFFFFB0
:10006000FFFFFFFFFFFFFFFFFFFFFFFFFFFFFFFFA0
:10007000FFFFFFFFFFFFFFFFFFFFFFFFFFFFFFFF90
:10008000FFFFFFFFFFFFFFFFFFFFFFFFFFFFFFFF80
:10009000FFFFFFFFFFFFFFFFFFFFFFFFFFFFFFFF70
:1000A000FFFFFFFFFFFFFFFFFFFFFFFFFFFFFFFF60
:1000B000FFFFFFFFFFFFFFFFFFFFFFFFFFFFFFFF50
:1000C000FFFFFFFFFFFFFFFFFFFFFFFFFFFFFFFF40
:1000D000FFFFFFFFFFFFFFFFFFFFFFFFFFFFFFFF30
:1000E000FFFFFFFFFFFFFFFFFFFFFFFFFFFFFFFF20
:1000F000FFFFFFFFFFFFFFFFFFFFFFFFFFFFFFFF10
:020000040030CA
:0C000000FCFFFFFF9FFFFFFFFFFFFFFF63
:00000001FF
