:0400000021EF00F0FC
:100008000E01C5BB08D00E01C6B111D00E01C8BB88
:10001800FAEC0AF010000F01080E5A6F0F015B810D
:100028000F018C7A0E01C59BE9EC0AF010000F0154
:0E0038005FCF21F00E01C69110007BEF0AF0A1
:10100000004F7574707574206F662066756E63741A
:10101000696F6E203D2000476C6F62616C207661C5
:10102000726961626C65203D2000583A00593A00AF
:101030005A3A000A00002250D8A421EF08F023EF0A
:1010400008F038EF08F02A0E366E100E376EB8EC46
:101050000AF021C06CF000016D6BDEEC0AF0330E7B
:10106000366E100E376EB8EC0AF0090E0F015A6F8B
:101070002204D8A43EEF08F040EF08F055EF08F046
:101080002D0E366E100E376EB8EC0AF021C06CF0E3
:1010900000016D6BDEEC0AF0330E366E100E376E0B
:1010A000B8EC0AF00A0E0F015A6F020E2218D8A4EB
:1010B0005CEF08F05EEF08F073EF08F0300E366E6C
:1010C000100E376EB8EC0AF021C06CF000016D6BA9
:1010D000DEEC0AF0330E366E100E376EB8EC0AF006
:1010E000080E0F015A6F222A030E2218D8A47BEF94
:1010F00008F07DEF08F07FEF08F0000E226E12007E
:101100000F01826B010E0F01876F010E0F010C6F33
:101110000F01836B070E0F01836F070E0F01146F12
:101120000F01846B0F01896B898E0F011C6B0E01FF
:10113000090EF66F0E01170EB06F0E01600ED36F21
:101140000E01060ED96F0E01400ED76F0F01330E40
:101150009A6E000E9B6E0F01200E9D6EB00E0F0159
:101160009C6E0F01080E5A6F0F01000E536F0F0196
:101170000F0E526F0F01000E5B6F0F01D46A0F014B
:101180004C0ED56E0F01D26A0E01C59B0E01C691A1
:101190000E01C89B0E01BD8B0E01BE810E01C08BDE
:1011A0000F01D48E0F015B8F0F01F28EF28C0001C4
:1011B000000E226F1200000171517211D8B4E3EFDA
:1011C00008F0E5EF08F0EEEF08F071517211D8A4C5
:1011D000ECEF08F0EEEF08F0F3EF08F06F51A4EC3D
:1011E0000AF026EF09F020EE09F07151D92672516C
:1011F000DA22DE50DE10D8B400EF09F002EF09F079
:101200001DEF09F020EE09F07151D9267251DA2252
:1012100010EE03F07151E1267251E222DE50E65CDD
:10122000E650800A776FDE50800A7759D8B01BEFFE
:1012300009F01DEF09F026EF09F020EE03F07151DF
:10124000D9267251DA22DE2A000EDD226FC06FF03D
:101250000001706B12003D503E10D8B432EF09F01F
:1012600034EF09F03DEF09F03D503E10D8A43BEFBC
:1012700009F03DEF09F042EF09F03B50CBEC0AF0EA
:1012800076EF09F020EE09F03D50D9263E50DA22E3
:10129000DE50DE10D8B44FEF09F051EF09F06DEFDA
:1012A00009F020EE09F03D50D9263E50DA2210EE2A
:1012B00003F03D50E1263E50E222DE50E65CE6506F
:1012C000800A00016B6FDE50800A6B59D8B06BEF5B
:1012D00009F06DEF09F076EF09F020EE03F03D50D4
:1012E000D9263E50DA22DE2A000EDD223BC03BF03A
:1012F0003C6A12007AC0D9FF7BC0DAFFDECFF6FF6E
:10130000DDCFF7FF0800F550250AD8A48AEF09F0D1
:101310008CEF09F0A5EF09F07AC0D9FF7BC0DAFFA6
:10132000DE2A000EDD22000E0001906F000E8F6F8E
:101330008FC093F0916992697AC0D9FF7BC0DAFFC0
:10134000DE2A000EDD22BAEF09F07AC0D9FF7BC099
:10135000DAFFDECFF6FFDDCFF7FF0800F550000122
:101360006F6F706B78C071F079C072F0DBEC08F0D1
:101370009CEF09F012002AC0D9FF2BC0DAFFDECFA4
:10138000F6FFDDCFF7FF0800F550250AD8A4CBEF14
:1013900009F0CDEF09F0E6EF09F02AC0D9FF2BC024
:1013A000DAFFDE2A000EDD22000E0001906F000E33
:1013B0008F6F8FC093F0916992692AC0D9FF2BC0BB
:1013C000DAFFDE2A000EDD22FAEF09F02AC0D9FF8B
:1013D0002BC0DAFFDECFF6FFDDCFF7FF0800F550B8
:1013E0003B6E3C6A28C03DF029C03EF02BEC09F072
:1013F000DDEF09F0120080EC08F0030EF2EC0AF0C9
:1014000000018E6F000E8D6F000E8C6F030E0001B9
:101410008B6F080E8A6F770EE82EFED78A2FFCD7C7
:101420008B2FFAD7010E00018C258C6F000E8D21B9
:101430008D6F9451D8B41FEF0AF021EF0AF006EF38
:101440000AF09451A4EC0AF0000E0001946F06EF2C
:101450000AF021EF00F080C084F081C085F040EFF9
:101460000AF07EC078F07FC079F0840E00017A6FB8
:10147000000E7B6F82C07CF083C07DF07AEC09F0B7
:1014800084C0F6FF85C0F7FF0800F5500009D8A416
:101490004CEF0AF04EEF0AF031EF0AF0000E0001B7
:1014A0007F6F000E7E6F120030C034F031C035F017
:1014B00068EF0AF02EC028F02FC029F0340E2A6EF3
:1014C000000E2B6E32C02CF033C02DF0BBEC09F0B7
:1014D00034C0F6FF35C0F7FF0800F5500009D8A466
:1014E00074EF0AF076EF0AF05AEF0AF0000E2F6E52
:1014F000000E2E6E1200808E809C00EE8FF0070E84
:10150000EE6AE806FDE100EE01F0220EEE6AE80662
:10151000FDE1000EF86E100EF76E0001FBEF09F012
:10152000880E0001886F000E896F000E7E6F000E1E
:101530007F6F86C080F087C081F0880E826F000EBA
:10154000836F2BEC0AF0120000016E6F0E01C8A928
:10155000ACEF0AF0AEEF0AF0A6EF0AF06EC099FF0A
:10156000C8A9B5EF0AF0B7EF0AF0B0EF0AF0120021
:10157000380E386E000E396E000E2E6E000E2F6E75
:1015800036C030F037C031F0380E326E000E336E98
:1015900054EC0AF012003A6E0E01C8A9D2EF0AF01C
:1015A000D4EF0AF0CCEF0AF03AC099FFC8A9DBEFFC
:1015B0000AF0DDEF0AF0D6EF0AF012006CC03BF043
:1015C0006DC03CF0000E3D6E000E3E6E2BEC09F03F
:1015D00012002A0E216E21C06CF000016D6BDEEC52
:1015E0000AF01200050F036E0001010E9527000B93
:0A15F0000324120098CF94F01200BB
:020000040020DA
:10000000FFFFFFFFFFFFFFFFFFFFFFFFFFFFFFFF00
:10001000FFFFFFFFFFFFFFFFFFFFFFFFFFFFFFFFF0
:10002000FFFFFFFFFFFFFFFFFFFFFFFFFFFFFFFFE0
:10003000FFFFFFFFFFFFFFFFFFFFFFFFFFFFFFFFD0
:10004000FFFFFFFFFFFFFFFFFFFFFFFFFFFFFFFFC0
:10005000FFFFFFFFFFFFFFFFFFFFFFFFFFFFFFFFB0
:10006000FFFFFFFFFFFFFFFFFFFFFFFFFFFFFFFFA0
:10007000FFFFFFFFFFFFFFFFFFFFFFFFFFFFFFFF90
:10008000FFFFFFFFFFFFFFFFFFFFFFFFFFFFFFFF80
:10009000FFFFFFFFFFFFFFFFFFFFFFFFFFFFFFFF70
:1000A000FFFFFFFFFFFFFFFFFFFFFFFFFFFFFFFF60
:1000B000FFFFFFFFFFFFFFFFFFFFFFFFFFFFFFFF50
:1000C000FFFFFFFFFFFFFFFFFFFFFFFFFFFFFFFF40
:1000D000FFFFFFFFFFFFFFFFFFFFFFFFFFFFFFFF30
:1000E000FFFFFFFFFFFFFFFFFFFFFFFFFFFFFFFF20
:1000F000FFFFFFFFFFFFFFFFFFFFFFFFFFFFFFFF10
:020000040030CA
:0C000000FCFFFFFF9FFFFFFFFFFFFFFF63
:00000001FF
