:0400000019EF00F004
:100008000E01C5BB08D00E01C6B110000E01C8BB59
:100018006BEC12F010000F01080E5A6F0F015B8194
:0E0028000F018C7A0E01C59B100089EF10F0BD
:10100000004F7574707574206F662066756E63741A
:10101000696F6E203D2000476C6F62616C207661C5
:10102000726961626C65203D20005472616E736D5F
:1010300069747465643A2000526563656976656415
:101040003A20000A0000446E4404D8A42AEF08F0B5
:101050002CEF08F025EF09F0010E58EC12F0000E0D
:1010600058EC12F0240E58EC12F0000E056E000E33
:10107000046ED50E0424D96E000E0520DA6EDF5002
:1010800058EC12F0044A052A05BE50EF08F005504E
:1010900009E1060E045CD8A050EF08F052EF08F00A
:1010A00039EF08F0000E076E000E066EDB0E062408
:1010B000D96E000E0720DA6EDF5058EC12F0064AA7
:1010C000072A07BE6DEF08F0075009E1030E065C22
:1010D000D8A06DEF08F06FEF08F056EF08F0000EA3
:1010E000096E000E086EDE0E0824D96E000E09206F
:1010F000DA6EDF5058EC12F0084A092A09BE8AEF6E
:1011000008F0095009E10C0E085CD8A08AEF08F03D
:101110008CEF08F073EF08F0000E0B6E000E0A6EF5
:10112000EA0E0A24D96E000E0B20DA6EDF5058EC5E
:1011300012F00A4A0B2A0BBEA7EF08F00B5009E188
:10114000030E0A5CD8A0A7EF08F0A9EF08F090EF13
:1011500008F0000E0D6E000E0C6EED0E0C24D96E14
:10116000000E0D20DA6EDF5058EC12F00C4A0D2AFA
:101170000DBEC4EF08F00D5009E1030E0C5CD8A0C1
:10118000C4EF08F0C6EF08F0ADEF08F0000E0F6EE8
:10119000000E0E6EF00E0E24D96E000E0F20DA6EC9
:1011A000DF5058EC12F00E4A0F2A0FBEE1EF08F0A4
:1011B0000F5009E1030E0E5CD8A0E1EF08F0E3EF59
:1011C00008F0CAEF08F0000E116E000E106E11BE8E
:1011D000F3EF08F0115009E1030E105CD8A0F3EF13
:1011E00008F0F5EF08F0F7EF08F004EF09F0F30E60
:1011F0001024D96E000E1120DA6EDF5058EC12F078
:10120000104A112AE7EF08F0000E136E000E126E5E
:1012100013BE14EF09F0135009E1030E125CD8A0BD
:1012200014EF09F016EF09F018EF09F075EF0CF064
:10123000F60E1224D96E000E1320DA6EDF5058EC31
:1012400012F0124A132A08EF09F0020E4418D8A42B
:101250002CEF09F02EEF09F03FEF0AF0020E58ECE8
:1012600012F0000E58EC12F0240E58EC12F0000EA2
:10127000156E000E146E15BE47EF09F0155009E10A
:10128000060E145CD8A047EF09F049EF09F04BEFC8
:1012900009F058EF09F0AC0E1424D96E010E152098
:1012A000DA6EDF5058EC12F0144A152A3BEF09F0C1
:1012B000000E176E000E166E17BE68EF09F017507D
:1012C00009E1030E165CD8A068EF09F06AEF09F097
:1012D0006CEF09F079EF09F0B20E1624D96E010E09
:1012E0001720DA6EDF5058EC12F0164A172A5CEF1E
:1012F00009F0000E196E000E186E19BE89EF09F084
:10130000195009E10C0E185CD8A089EF09F08BEF99
:1013100009F08DEF09F09AEF09F0B50E1824D96E97
:10132000010E1920DA6EDF5058EC12F0184A192A13
:101330007DEF09F0000E1B6E000E1A6E1BBEAAEFA9
:1013400009F01B5009E1030E1A5CD8A0AAEF09F0BE
:10135000ACEF09F0AEEF09F0BBEF09F0C10E1A24B3
:10136000D96E010E1B20DA6EDF5058EC12F01A4ACB
:101370001B2A9EEF09F0000E1D6E000E1C6E1DBE96
:10138000CBEF09F01D5009E1030E1C5CD8A0CBEF98
:1013900009F0CDEF09F0CFEF09F0DCEF09F0C40E52
:1013A0001C24D96E010E1D20DA6EDF5058EC12F0AD
:1013B0001C4A1D2ABFEF09F0000E1F6E000E1E6EA4
:1013C0001FBEECEF09F01F5009E1030E1E5CD8A010
:1013D000ECEF09F0EEEF09F0F0EF09F0FDEF09F0A6
:1013E000C70E1E24D96E010E1F20DA6EDF5058EC96
:1013F00012F01E4A1F2AE0EF09F0000E216E000EC7
:10140000206E21BE0DEF0AF0215009E1030E205C91
:10141000D8A00DEF0AF00FEF0AF011EF0AF01EEF5F
:101420000AF0CA0E2024D96E010E2120DA6EDF5098
:1014300058EC12F0204A212A01EF0AF0000E236E28
:10144000000E226E23BE2EEF0AF0235009E1030E98
:10145000225CD8A02EEF0AF030EF0AF032EF0AF04B
:1014600075EF0CF0CD0E2224D96E010E2320DA6E1A
:10147000DF5058EC12F0224A232A22EF0AF0030E22
:101480004418D8A446EF0AF048EF0AF059EF0BF0E1
:10149000030E58EC12F0000E58EC12F0240E58EC2B
:1014A00012F0000E256E000E246E25BE61EF0AF0CC
:1014B000255009E1060E245CD8A061EF0AF063EF25
:1014C0000AF065EF0AF072EF0AF0880E2424D96E54
:1014D000010E2520DA6EDF5058EC12F0244A252A3E
:1014E00055EF0AF0000E276E000E266E27BE82EF23
:1014F0000AF0275009E1030E265CD8A082EF0AF01B
:1015000084EF0AF086EF0AF093EF0AF08E0E26249D
:10151000D96E010E2720DA6EDF5058EC12F0264A01
:10152000272A76EF0AF0000E296E000E286E29BEDB
:10153000A3EF0AF0295009E10C0E285CD8A0A3EF14
:101540000AF0A5EF0AF0A7EF0AF0B4EF0AF0910E47
:101550002824D96E010E2920DA6EDF5058EC12F0E3
:10156000284A292A97EF0AF0000E2B6E000E2A6EE9
:101570002BBEC4EF0AF02B5009E1030E2A5CD8A061
:10158000C4EF0AF0C6EF0AF0C8EF0AF0D5EF0AF090
:101590009D0E2A24D96E010E2B20DA6EDF5058ECF6
:1015A00012F02A4A2B2AB8EF0AF0000E2D6E000E18
:1015B0002C6E2DBEE5EF0AF02D5009E1030E2C5CD8
:1015C000D8A0E5EF0AF0E7EF0AF0E9EF0AF0F6EF4E
:1015D0000AF0A00E2C24D96E010E2D20DA6EDF50F9
:1015E00058EC12F02C4A2D2AD9EF0AF0000E2F6E7B
:1015F000000E2E6E2FBE06EF0BF02F5009E1030EEA
:101600002E5CD8A006EF0BF008EF0BF00AEF0BF002
:1016100017EF0BF0A30E2E24D96E010E2F20DA6ED9
:10162000DF5058EC12F02E4A2F2AFAEF0AF0000E83
:10163000316E000E306E31BE27EF0BF0315009E1F4
:10164000030E305CD8A027EF0BF029EF0BF02BEF47
:101650000BF038EF0BF0A60E3024D96E010E3120BE
:10166000DA6EDF5058EC12F0304A312A1BEF0BF0E3
:10167000000E336E000E326E33BE48EF0BF0335067
:1016800009E1030E325CD8A048EF0BF04AEF0BF0F3
:101690004CEF0BF075EF0CF0A90E3224D96E010E51
:1016A0003320DA6EDF5058EC12F0324A332A3CEF26
:1016B0000BF0040E4418D8A460EF0BF062EF0BF0AF
:1016C00073EF0CF0040E58EC12F0000E58EC12F010
:1016D000240E58EC12F0000E356E000E346E35BE3E
:1016E0007BEF0BF0355009E1060E345CD8A07BEFA0
:1016F0000BF07DEF0BF07FEF0BF08CEF0BF0640E37
:101700003424D96E010E3520DA6EDF5058EC12F019
:10171000344A352A6FEF0BF0000E376E000E366E2E
:1017200037BE9CEF0BF0375009E1030E365CD8A0B2
:101730009CEF0BF09EEF0BF0A0EF0BF0ADEF0BF07A
:101740006A0E3624D96E010E3720DA6EDF5058EC5F
:1017500012F0364A372A90EF0BF0000E396E000E69
:10176000386E39BEBDEF0BF0395009E10C0E385C14
:10177000D8A0BDEF0BF0BFEF0BF0C1EF0BF0CEEF39
:101780000BF06D0E3824D96E010E3920DA6EDF5061
:1017900058EC12F0384A392AB1EF0BF0000E3B6ECC
:1017A000000E3A6E3BBEDEEF0BF03B5009E1030E3C
:1017B0003A5CD8A0DEEF0BF0E0EF0BF0E2EF0BF0BD
:1017C000EFEF0BF0790E3A24D96E010E3B20DA6E62
:1017D000DF5058EC12F03A4A3B2AD2EF0BF0000EE1
:1017E0003D6E000E3C6E3DBEFFEF0BF03D5009E13B
:1017F000030E3C5CD8A0FFEF0BF001EF0CF003EF01
:101800000CF010EF0CF07C0E3C24D96E010E3D2044
:10181000DA6EDF5058EC12F03C4A3D2AF3EF0BF041
:10182000000E3F6E000E3E6E3FBE20EF0CF03F50AC
:1018300009E1030E3E5CD8A020EF0CF022EF0CF083
:1018400024EF0CF031EF0CF07F0E3E24D96E010E28
:101850003F20DA6EDF5058EC12F03E4A3F2A14EF78
:101860000CF0000E416E000E406E41BE41EF0CF0D8
:10187000415009E1030E405CD8A041EF0CF043EF6A
:101880000CF045EF0CF052EF0CF0820E4024D96EB4
:10189000010E4120DA6EDF5058EC12F0404A412A26
:1018A00035EF0CF0000E436E000E426E43BE62EF49
:1018B0000CF0435009E1030E425CD8A062EF0CF03B
:1018C00064EF0CF066EF0CF075EF0CF0850E42241F
:1018D000D96E010E4320DA6EDF5058EC12F0424A06
:1018E000432A56EF0CF001EC12F0120020EEACF09F
:1018F00010EE83F0050EDBCFE3FFE806FCE2D50E29
:101900000001606F000E616F830E626F000E636FE7
:10191000000E656F060E646FD8EC11F0CBC089F035
:10192000CCC08AF0CDC08BF0DB0E0001606F000EE2
:10193000616F890E626F000E636F000E656F030E9C
:10194000646FD8EC11F020EE45F010EE6BF00B0E4A
:10195000DBCFE3FFE806FCE2DE0E0001606F000E65
:10196000616F6B0E626F000E636F000E656F0C0E81
:10197000646FD8EC11F0C8C08CF0C9C08DF0CAC03B
:101980008EF0EA0E0001606F000E616F8C0E626FC8
:10199000000E636F000E656F030E646FD8EC11F0DC
:1019A000C5C08FF0C6C090F0C7C091F0ED0E000129
:1019B000606F000E616F8F0E626F000E636F000E1E
:1019C000656F030E646FD8EC11F0C2C092F0C3C013
:1019D00093F0C4C094F0F00E0001606F000E616FD0
:1019E000920E626F000E636F000E656F030E646FE0
:1019F000D8EC11F0BFC095F0C0C096F0C1C097F010
:101A0000F30E0001606F000E616F950E626F000EA5
:101A1000636F000E656F010E646FD8EC11F0BCC0EF
:101A200098F0BDC099F0BEC09AF0F60E0001606F4C
:101A3000000E616F980E626F000E636F000E656F8F
:101A4000030E646FD8EC11F0AC0E0001606F010E54
:101A5000616FD50E626F000E636F000E656F060E2C
:101A6000646FD8EC11F0B20E0001606F010E616F6F
:101A7000DB0E626F000E636F000E656F030E646F06
:101A8000D8EC11F0B50E0001606F010E616FDE0E33
:101A9000626F000E636F000E656F0C0E646FD8EC02
:101AA00011F0C10E0001606F010E616FEA0E626FEE
:101AB000000E636F000E656F030E646FD8EC11F0BB
:101AC000C40E0001606F010E616FED0E626F000EBB
:101AD000636F000E656F030E646FD8EC11F0C70ED4
:101AE0000001606F010E616FF00E626F000E636F98
:101AF000000E656F030E646FD8EC11F0CA0E000182
:101B0000606F010E616FF30E626F000E636F000E67
:101B1000656F030E646FD8EC11F0CD0E0001606F9D
:101B2000010E616FF60E626F000E636F000E656F3F
:101B3000030E646FD8EC11F0880E0001606F010E87
:101B4000616FD50E626F000E636F000E656F060E3B
:101B5000646FD8EC11F08E0E0001606F010E616FA2
:101B6000DB0E626F000E636F000E656F030E646F15
:101B7000D8EC11F0910E0001606F010E616FDE0E66
:101B8000626F000E636F000E656F0C0E646FD8EC11
:101B900011F09D0E0001606F010E616FEA0E626F21
:101BA000000E636F000E656F030E646FD8EC11F0CA
:101BB000A00E0001606F010E616FED0E626F000EEE
:101BC000636F000E656F030E646FD8EC11F0A30E07
:101BD0000001606F010E616FF00E626F000E636FA7
:101BE000000E656F030E646FD8EC11F0A60E0001B5
:101BF000606F010E616FF30E626F000E636F000E77
:101C0000656F030E646FD8EC11F0A90E0001606FD0
:101C1000010E616FF60E626F000E636F000E656F4E
:101C2000030E646FD8EC11F0640E0001606F010EBA
:101C3000616FD50E626F000E636F000E656F060E4A
:101C4000646FD8EC11F06A0E0001606F010E616FD5
:101C5000DB0E626F000E636F000E656F030E646F24
:101C6000D8EC11F021EEE6F010EE77F00B0EDBCFA2
:101C7000E3FFE806FCE26D0E0001606F010E616F8C
:101C8000770E626F000E636F000E656F0C0E646F4F
:101C9000D8EC11F0790E0001606F010E616FEA0E51
:101CA000626F000E636F000E656F030E646FD8ECF9
:101CB00011F07C0E0001606F010E616FED0E626F1E
:101CC000000E636F000E656F030E646FD8EC11F0A9
:101CD0007F0E0001606F010E616FF00E626F000EEB
:101CE000636F000E656F030E646FD8EC11F0820E07
:101CF0000001606F010E616FF30E626F000E636F83
:101D0000000E656F030E646FD8EC11F0850E0001B4
:101D1000606F010E616FF60E626F000E636F000E52
:101D2000656F030E646FD8EC11F0120056BEA4EF7D
:101D30000EF0565007E1050E555CD8B0A2EF0EF03C
:101D4000A4EF0EF0A6EF0EF01FEF0FF00101020559
:101D5000D8A4ADEF0EF0AFEF0EF0EDEF0EF0020EE7
:101D60000319D8A4B6EF0EF0B8EF0EF019EF0FF08C
:101D7000020E0519D8A4BFEF0EF0C1EF0EF019EF57
:101D80000FF00605D8A4C7EF0EF0C9EF0EF0D5EF9F
:101D90000EF00751D8A4CFEF0EF0D1EF0EF0D5EF33
:101DA0000EF020EC0FF01FEF0FF0030E0619D8A471
:101DB000DCEF0EF0DEEF0EF0EBEF0EF00751D8A4E3
:101DC000E4EF0EF0E6EF0EF0EBEF0EF0015123EC36
:101DD00008F01FEF0FF019EF0FF0030E0219D8A44F
:101DE000F4EF0EF0F6EF0EF019EF0FF00405D8A4A3
:101DF000FCEF0EF0FEEF0EF019EF0FF00451D8A437
:101E000004EF0FF006EF0FF019EF0FF00505D8A45F
:101E10000CEF0FF00EEF0FF019EF0FF00051D8A4F8
:101E200014EF0FF016EF0FF0EBEF0EF0015135EC61
:101E300010F001EC12F0000E566E000E556E1200FE
:101E4000010E58EC12F0000E58EC12F0160E58EC81
:101E500012F0000E036E000E026ED00E0224D96E38
:101E6000010E0320DA6EDF5058EC12F0024A032A0A
:101E700003BE44EF0FF0035009E1060E025CD8A048
:101E800044EF0FF046EF0FF02DEF0FF0000E056E50
:101E9000000E046ED60E0424D96E010E0520DA6EF3
:101EA000DF5058EC12F0044A052A05BE61EF0FF02E
:101EB000055009E10C0E045CD8A061EF0FF063EF50
:101EC0000FF04AEF0FF0000E076E000E066EE20EE6
:101ED0000624D96E010E0720DA6EDF5058EC12F09E
:101EE000064A072A07BE7EEF0FF0075009E1040EED
:101EF000065CD8A07EEF0FF080EF0FF067EF0FF0D9
:101F000012000F01826B010E0F01876F010E0F018E
:101F10000C6F0F01836B070E0F01836F070E0F010C
:101F2000146F0F01846B0F01896B898E0F011C6B7D
:101F30000E01090EF66F0E01170EB06F0E01600E46
:101F4000D36F0E01060ED96F0E01400ED76F0F0131
:101F5000330E9A6E000E9B6E0F01200E9D6EB00E1A
:101F60000F019C6E0F01080E5A6F0F01000E536F88
:101F70000F010F0E526F0F01000E5B6F0F01D46A3D
:101F80000F014C0ED56E0F01D26A0E01C59B0E01DA
:101F9000C6910E01C89B0E01BD8B0E01BE810E01C4
:101FA000C08B0F01D48E0F015B8F0F01F28EF28C6C
:101FB0000001000E586F120081EC0FF026EC11F0BA
:101FC00076EC0CF0030E78EC12F000019F6F000E1F
:101FD0009E6F000E9D6F9D5144EC12F0030E0001A8
:101FE0009C6F080E9B6F770EE82EFED79B2FFCD7B9
:101FF0009C2FFAD7010E00019D259D6F000E9E219A
:102000009E6FD351D8B407EF10F009EF10F0EBEF4B
:102010000FF0380E786F100E796F30EC12F000016F
:10202000D35144EC12F0430E0001786F100E796F1B
:1020300030EC12F02A0E0001786F100E796F30EC40
:1020400012F00001D329D36FD35144EC12F0430EA8
:102050000001786F100E796F30EC12F0000E000165
:10206000D36FEBEF0FF019EF00F0046E0404D8A467
:102070003CEF10F03EEF10F043EF10F0080E0F01B0
:102080005A6F71EF10F0020E0418D8A44AEF10F046
:102090004CEF10F051EF10F0090E0F015A6F71EF75
:1020A00010F0030E0418D8A458EF10F05AEF10F0F7
:1020B0005FEF10F00A0E0F015A6F71EF10F0040E6F
:1020C0000418D8A466EF10F068EF10F06DEF10F070
:1020D000000E0F015A6F71EF10F001EC12F088EF53
:1020E00010F05B810E01C6A178EF10F07AEF10F0CE
:1020F00072EF10F0C691010E58EC12F0000E58EC81
:1021000012F0010E58EC12F00F015E5158EC12F073
:102110001200808E809C0C0EF66E250EF76E000E5F
:10212000F86E01EEE6F010EE0CF00900F5CFEEFFD0
:10213000E550E150FAE1320EF66E240EF76E000E15
:10214000F86E00EEA0F010EE2EF00900F5CFEEFFD5
:10215000E550E150FAE1000EF66E250EF76E000E26
:10216000F86E00EE45F010EE0CF00900F5CFEEFF32
:10217000E550E150FAE102EE00F0E80EEE6AE80602
:10218000FDE101EE00F0E60EEE6AE806FDE100EE8C
:10219000CEF02B0EEE6AE806FDE100EE51F0080EDF
:1021A000EE6AE806FDE1000EF86E100EF76E000113
:1021B000DCEF0FF0000163516411D8B4E2EF10F0CE
:1021C000E4EF10F0EDEF10F063516411D8A4EBEFE1
:1021D00010F0EDEF10F0F2EF10F0615144EC12F05E
:1021E00025EF11F020EE09F06351D9266451DA226F
:1021F000DE50DE10D8B4FFEF10F001EF11F01CEF4D
:1022000011F020EE09F06351D9266451DA2210EE64
:1022100003F06351E1266451E222DE50E65CE650B1
:10222000800A696FDE50800A6959D8B01AEF11F040
:102230001CEF11F025EF11F020EE03F06351D926C9
:102240006451DA22DE2A000EDD22120020EEB2F006
:1022500010EE77F0050EDBCFE3FFE806FCE2D00ED0
:102260000001606F010E616F770E626F000E636F89
:10227000000E656F060E646FD8EC11F020EEA0F032
:1022800010EE6BF00B0EDBCFE3FFE806FCE2D60EA0
:102290000001606F010E616F6B0E626F000E636F65
:1022A000000E656F0C0E646FD8EC11F0B8C07DF0B5
:1022B000B9C07EF0BAC07FF0BBC080F0E20E000172
:1022C000606F010E616F7D0E626F000E636F000E16
:1022D000656F040E646FD8EC11F012006CC0D9FF6A
:1022E0006DC0DAFFDECFF6FFDDCFF7FF0800F55057
:1022F000250AD8A47EEF11F080EF11F099EF11F0CC
:102300006CC0D9FF6DC0DAFFDE2A000EDD22000EA0
:102310000001CF6F000ECE6FCEC0D2F0D069D16970
:102320006CC0D9FF6DC0DAFFDE2A000EDD22AEEFF1
:1023300011F06CC0D9FF6DC0DAFFDECFF6FFDDCF44
:10234000F7FF0800F5500001616F626B6AC063F02F
:102350006BC064F0DAEC10F090EF11F0120072C074
:1023600076F073C077F0C4EF11F070C06AF071C0FE
:102370006BF0760E00016C6F000E6D6F74C06EF026
:1023800075C06FF06EEC11F076C0F6FF77C0F7FF06
:102390000800F5500009D8A4D0EF11F0D2EF11F0E9
:1023A000B5EF11F0000E0001716F000E706F12009A
:1023B00062C068F063C069F060C066F061C067F039
:1023C000F2EF11F068C0D9FF69C0DAFFDF506A6F21
:1023D000684B692B66C0D9FF67C0DAFF6AC0DFFFB0
:1023E000664B672B00016407D8A06507642906E1E6
:1023F0006529D8A4FEEF11F000EF12F0E2EF11F022
:102400001200000E036E000E026E000E58EC12F069
:10241000024A032A03BE16EF12F0035009E1060E2A
:10242000025CD8A016EF12F018EF12F005EF12F0D0
:102430001200040A00000000000000000001030474
:10244000000300010304000100010D0200022A0143
:10245000082901012801000E01FF0D01000B0100F8
:102460007A0E00017A6F000E7B6F000E706F000E07
:10247000716F78C072F079C073F07A0E746F000ECD
:10248000756FAFEC11F012000001606F0E01C8A96A
:102490004CEF12F04EEF12F046EF12F060C099FFD1
:1024A000C8A955EF12F057EF12F050EF12F01200DA
:1024B000016E0E01C8A95FEF12F061EF12F059EF43
:1024C00012F001C099FFC8A968EF12F06AEF12F08C
:1024D00063EF12F01200000E5524D96E010E562043
:1024E000DA6E98CFDFFF554A562A96EC0EF01200AE
:1024F000050F036E0001010ED427000B0324120008
:102500000C0A00808082807C808080800C0A0080A1
:082510008084827A7E808080C5
:020000040020DA
:10000000FFFFFFFFFFFFFFFFFFFFFFFFFFFFFFFF00
:10001000FFFFFFFFFFFFFFFFFFFFFFFFFFFFFFFFF0
:10002000FFFFFFFFFFFFFFFFFFFFFFFFFFFFFFFFE0
:10003000FFFFFFFFFFFFFFFFFFFFFFFFFFFFFFFFD0
:10004000FFFFFFFFFFFFFFFFFFFFFFFFFFFFFFFFC0
:10005000FFFFFFFFFFFFFFFFFFFFFFFFFFFFFFFFB0
:10006000FFFFFFFFFFFFFFFFFFFFFFFFFFFFFFFFA0
:10007000FFFFFFFFFFFFFFFFFFFFFFFFFFFFFFFF90
:10008000FFFFFFFFFFFFFFFFFFFFFFFFFFFFFFFF80
:10009000FFFFFFFFFFFFFFFFFFFFFFFFFFFFFFFF70
:1000A000FFFFFFFFFFFFFFFFFFFFFFFFFFFFFFFF60
:1000B000FFFFFFFFFFFFFFFFFFFFFFFFFFFFFFFF50
:1000C000FFFFFFFFFFFFFFFFFFFFFFFFFFFFFFFF40
:1000D000FFFFFFFFFFFFFFFFFFFFFFFFFFFFFFFF30
:1000E000FFFFFFFFFFFFFFFFFFFFFFFFFFFFFFFF20
:1000F000FFFFFFFFFFFFFFFFFFFFFFFFFFFFFFFF10
:020000040030CA
:0C000000FCFFFFFF9FFFFFFFFFFFFFFF63
:00000001FF
